{
  "_format": "hh-sol-artifact-1",
  "contractName": "ReviewSystem",
  "sourceName": "contracts/ReviewSystem.sol",
  "abi": [
    {
      "inputs": [],
      "stateMutability": "nonpayable",
      "type": "constructor"
    },
    {
      "inputs": [
        {
          "internalType": "address",
          "name": "owner",
          "type": "address"
        }
      ],
      "name": "OwnableInvalidOwner",
      "type": "error"
    },
    {
      "inputs": [
        {
          "internalType": "address",
          "name": "account",
          "type": "address"
        }
      ],
      "name": "OwnableUnauthorizedAccount",
      "type": "error"
    },
    {
      "anonymous": false,
      "inputs": [
        {
          "indexed": true,
          "internalType": "address",
          "name": "previousOwner",
          "type": "address"
        },
        {
          "indexed": true,
          "internalType": "address",
          "name": "newOwner",
          "type": "address"
        }
      ],
      "name": "OwnershipTransferred",
      "type": "event"
    },
    {
      "anonymous": false,
      "inputs": [
        {
          "indexed": true,
          "internalType": "uint256",
          "name": "listingId",
          "type": "uint256"
        },
        {
          "indexed": true,
          "internalType": "address",
          "name": "reviewer",
          "type": "address"
        },
        {
          "indexed": false,
          "internalType": "uint8",
          "name": "rating",
          "type": "uint8"
        }
      ],
      "name": "ReviewAdded",
      "type": "event"
    },
    {
      "anonymous": false,
      "inputs": [
        {
          "indexed": true,
          "internalType": "uint256",
          "name": "listingId",
          "type": "uint256"
        },
        {
          "indexed": false,
          "internalType": "uint256",
          "name": "reviewIndex",
          "type": "uint256"
        }
      ],
      "name": "ReviewVerified",
      "type": "event"
    },
    {
      "inputs": [
        {
          "internalType": "uint256",
          "name": "listingId",
          "type": "uint256"
        },
        {
          "internalType": "uint8",
          "name": "rating",
          "type": "uint8"
        },
        {
          "internalType": "string",
          "name": "comment",
          "type": "string"
        }
      ],
      "name": "addReview",
      "outputs": [],
      "stateMutability": "nonpayable",
      "type": "function"
    },
    {
      "inputs": [
        {
          "internalType": "uint256",
          "name": "listingId",
          "type": "uint256"
        }
      ],
      "name": "getListingReviews",
      "outputs": [
        {
          "components": [
            {
              "internalType": "uint256",
              "name": "listingId",
              "type": "uint256"
            },
            {
              "internalType": "address",
              "name": "reviewer",
              "type": "address"
            },
            {
              "internalType": "uint8",
              "name": "rating",
              "type": "uint8"
            },
            {
              "internalType": "string",
              "name": "comment",
              "type": "string"
            },
            {
              "internalType": "uint256",
              "name": "timestamp",
              "type": "uint256"
            },
            {
              "internalType": "bool",
              "name": "verified",
              "type": "bool"
            },
            {
              "internalType": "bool",
              "name": "exists",
              "type": "bool"
            }
          ],
          "internalType": "struct ReviewSystem.Review[]",
          "name": "",
          "type": "tuple[]"
        }
      ],
      "stateMutability": "view",
      "type": "function"
    },
    {
      "inputs": [
        {
          "internalType": "uint256",
          "name": "listingId",
          "type": "uint256"
        }
      ],
      "name": "getReviewCount",
      "outputs": [
        {
          "internalType": "uint256",
          "name": "",
          "type": "uint256"
        }
      ],
      "stateMutability": "view",
      "type": "function"
    },
    {
      "inputs": [
        {
          "internalType": "address",
          "name": "user",
          "type": "address"
        },
        {
          "internalType": "uint256",
          "name": "listingId",
          "type": "uint256"
        }
      ],
      "name": "hasUserReviewed",
      "outputs": [
        {
          "internalType": "bool",
          "name": "",
          "type": "bool"
        }
      ],
      "stateMutability": "view",
      "type": "function"
    },
    {
      "inputs": [],
      "name": "owner",
      "outputs": [
        {
          "internalType": "address",
          "name": "",
          "type": "address"
        }
      ],
      "stateMutability": "view",
      "type": "function"
    },
    {
      "inputs": [],
      "name": "renounceOwnership",
      "outputs": [],
      "stateMutability": "nonpayable",
      "type": "function"
    },
    {
      "inputs": [
        {
          "internalType": "address",
          "name": "newOwner",
          "type": "address"
        }
      ],
      "name": "transferOwnership",
      "outputs": [],
      "stateMutability": "nonpayable",
      "type": "function"
    },
    {
      "inputs": [
        {
          "internalType": "uint256",
          "name": "listingId",
          "type": "uint256"
        },
        {
          "internalType": "uint256",
          "name": "reviewIndex",
          "type": "uint256"
        }
      ],
      "name": "verifyReview",
      "outputs": [],
      "stateMutability": "nonpayable",
      "type": "function"
    }
  ],
  "bytecode": "0x60806040523480156200001157600080fd5b5033600073ffffffffffffffffffffffffffffffffffffffff168173ffffffffffffffffffffffffffffffffffffffff1603620000885760006040517f1e4fbdf70000000000000000000000000000000000000000000000000000000081526004016200007f9190620001a9565b60405180910390fd5b6200009981620000a060201b60201c565b50620001c6565b60008060009054906101000a900473ffffffffffffffffffffffffffffffffffffffff169050816000806101000a81548173ffffffffffffffffffffffffffffffffffffffff021916908373ffffffffffffffffffffffffffffffffffffffff1602179055508173ffffffffffffffffffffffffffffffffffffffff168173ffffffffffffffffffffffffffffffffffffffff167f8be0079c531659141344cd1fd0a4f28419497f9722a3daafe3b4186f6b6457e060405160405180910390a35050565b600073ffffffffffffffffffffffffffffffffffffffff82169050919050565b6000620001918262000164565b9050919050565b620001a38162000184565b82525050565b6000602082019050620001c0600083018462000198565b92915050565b61169380620001d66000396000f3fe608060405234801561001057600080fd5b50600436106100885760003560e01c8063715018a61161005b578063715018a6146101255780638da5cb5b1461012f578063c910bd5c1461014d578063f2fde38b1461017d57610088565b80631dfaf30a1461008d5780633f3b9b0c146100a95780634909f98b146100d95780635d75135a146100f5575b600080fd5b6100a760048036038101906100a29190610b0e565b610199565b005b6100c360048036038101906100be9190610bac565b610307565b6040516100d09190610c07565b60405180910390f35b6100f360048036038101906100ee9190610da1565b61036f565b005b61010f600480360381019061010a9190610e10565b6106cd565b60405161011c9190610e4c565b60405180910390f35b61012d6106ed565b005b610137610701565b6040516101449190610e76565b60405180910390f35b61016760048036038101906101629190610e10565b61072a565b60405161017491906110aa565b60405180910390f35b610197600480360381019061019291906110cc565b6108eb565b005b6101a1610971565b600160008381526020019081526020016000208054905081106101f9576040517f08c379a00000000000000000000000000000000000000000000000000000000081526004016101f090611156565b60405180910390fd5b60016000838152602001908152602001600020818154811061021e5761021d611176565b5b906000526020600020906005020160040160009054906101000a900460ff161561027d576040517f08c379a0000000000000000000000000000000000000000000000000000000008152600401610274906111f1565b60405180910390fd5b600180600084815260200190815260200160002082815481106102a3576102a2611176565b5b906000526020600020906005020160040160006101000a81548160ff021916908315150217905550817f4c105b51a8c8353858281f8a5e33844e0d7fdcf24c80850864eb56524c5d2686826040516102fb9190610e4c565b60405180910390a25050565b6000600260008473ffffffffffffffffffffffffffffffffffffffff1673ffffffffffffffffffffffffffffffffffffffff168152602001908152602001600020600083815260200190815260200160002060009054906101000a900460ff16905092915050565b600260003373ffffffffffffffffffffffffffffffffffffffff1673ffffffffffffffffffffffffffffffffffffffff168152602001908152602001600020600084815260200190815260200160002060009054906101000a900460ff161561040d576040517f08c379a00000000000000000000000000000000000000000000000000000000081526004016104049061125d565b60405180910390fd5b60018260ff1610158015610425575060058260ff1611155b610464576040517f08c379a000000000000000000000000000000000000000000000000000000000815260040161045b906112c9565b60405180910390fd5b60008151116104a8576040517f08c379a000000000000000000000000000000000000000000000000000000000815260040161049f90611335565b60405180910390fd5b60006040518060e001604052808581526020013373ffffffffffffffffffffffffffffffffffffffff1681526020018460ff168152602001838152602001428152602001600015158152602001600115158152509050600160008581526020019081526020016000208190806001815401808255809150506001900390600052602060002090600502016000909190919091506000820151816000015560208201518160010160006101000a81548173ffffffffffffffffffffffffffffffffffffffff021916908373ffffffffffffffffffffffffffffffffffffffff16021790555060408201518160010160146101000a81548160ff021916908360ff16021790555060608201518160020190816105c29190611561565b506080820151816003015560a08201518160040160006101000a81548160ff02191690831515021790555060c08201518160040160016101000a81548160ff02191690831515021790555050506001600260003373ffffffffffffffffffffffffffffffffffffffff1673ffffffffffffffffffffffffffffffffffffffff168152602001908152602001600020600086815260200190815260200160002060006101000a81548160ff0219169083151502179055503373ffffffffffffffffffffffffffffffffffffffff16847fcd105d6c08f27f681ab198bd63b5f4b32ce4977facd0909acb589cf2c8266872856040516106bf9190611642565b60405180910390a350505050565b600060016000838152602001908152602001600020805490509050919050565b6106f5610971565b6106ff60006109f8565b565b60008060009054906101000a900473ffffffffffffffffffffffffffffffffffffffff16905090565b606060016000838152602001908152602001600020805480602002602001604051908101604052809291908181526020016000905b828210156108e057838290600052602060002090600502016040518060e0016040529081600082015481526020016001820160009054906101000a900473ffffffffffffffffffffffffffffffffffffffff1673ffffffffffffffffffffffffffffffffffffffff1673ffffffffffffffffffffffffffffffffffffffff1681526020016001820160149054906101000a900460ff1660ff1660ff16815260200160028201805461080f90611384565b80601f016020809104026020016040519081016040528092919081815260200182805461083b90611384565b80156108885780601f1061085d57610100808354040283529160200191610888565b820191906000526020600020905b81548152906001019060200180831161086b57829003601f168201915b50505050508152602001600382015481526020016004820160009054906101000a900460ff161515151581526020016004820160019054906101000a900460ff1615151515815250508152602001906001019061075f565b505050509050919050565b6108f3610971565b600073ffffffffffffffffffffffffffffffffffffffff168173ffffffffffffffffffffffffffffffffffffffff16036109655760006040517f1e4fbdf700000000000000000000000000000000000000000000000000000000815260040161095c9190610e76565b60405180910390fd5b61096e816109f8565b50565b610979610abc565b73ffffffffffffffffffffffffffffffffffffffff16610997610701565b73ffffffffffffffffffffffffffffffffffffffff16146109f6576109ba610abc565b6040517f118cdaa70000000000000000000000000000000000000000000000000000000081526004016109ed9190610e76565b60405180910390fd5b565b60008060009054906101000a900473ffffffffffffffffffffffffffffffffffffffff169050816000806101000a81548173ffffffffffffffffffffffffffffffffffffffff021916908373ffffffffffffffffffffffffffffffffffffffff1602179055508173ffffffffffffffffffffffffffffffffffffffff168173ffffffffffffffffffffffffffffffffffffffff167f8be0079c531659141344cd1fd0a4f28419497f9722a3daafe3b4186f6b6457e060405160405180910390a35050565b600033905090565b6000604051905090565b600080fd5b600080fd5b6000819050919050565b610aeb81610ad8565b8114610af657600080fd5b50565b600081359050610b0881610ae2565b92915050565b60008060408385031215610b2557610b24610ace565b5b6000610b3385828601610af9565b9250506020610b4485828601610af9565b9150509250929050565b600073ffffffffffffffffffffffffffffffffffffffff82169050919050565b6000610b7982610b4e565b9050919050565b610b8981610b6e565b8114610b9457600080fd5b50565b600081359050610ba681610b80565b92915050565b60008060408385031215610bc357610bc2610ace565b5b6000610bd185828601610b97565b9250506020610be285828601610af9565b9150509250929050565b60008115159050919050565b610c0181610bec565b82525050565b6000602082019050610c1c6000830184610bf8565b92915050565b600060ff82169050919050565b610c3881610c22565b8114610c4357600080fd5b50565b600081359050610c5581610c2f565b92915050565b600080fd5b600080fd5b6000601f19601f8301169050919050565b7f4e487b7100000000000000000000000000000000000000000000000000000000600052604160045260246000fd5b610cae82610c65565b810181811067ffffffffffffffff82111715610ccd57610ccc610c76565b5b80604052505050565b6000610ce0610ac4565b9050610cec8282610ca5565b919050565b600067ffffffffffffffff821115610d0c57610d0b610c76565b5b610d1582610c65565b9050602081019050919050565b82818337600083830152505050565b6000610d44610d3f84610cf1565b610cd6565b905082815260208101848484011115610d6057610d5f610c60565b5b610d6b848285610d22565b509392505050565b600082601f830112610d8857610d87610c5b565b5b8135610d98848260208601610d31565b91505092915050565b600080600060608486031215610dba57610db9610ace565b5b6000610dc886828701610af9565b9350506020610dd986828701610c46565b925050604084013567ffffffffffffffff811115610dfa57610df9610ad3565b5b610e0686828701610d73565b9150509250925092565b600060208284031215610e2657610e25610ace565b5b6000610e3484828501610af9565b91505092915050565b610e4681610ad8565b82525050565b6000602082019050610e616000830184610e3d565b92915050565b610e7081610b6e565b82525050565b6000602082019050610e8b6000830184610e67565b92915050565b600081519050919050565b600082825260208201905092915050565b6000819050602082019050919050565b610ec681610ad8565b82525050565b610ed581610b6e565b82525050565b610ee481610c22565b82525050565b600081519050919050565b600082825260208201905092915050565b60005b83811015610f24578082015181840152602081019050610f09565b60008484015250505050565b6000610f3b82610eea565b610f458185610ef5565b9350610f55818560208601610f06565b610f5e81610c65565b840191505092915050565b610f7281610bec565b82525050565b600060e083016000830151610f906000860182610ebd565b506020830151610fa36020860182610ecc565b506040830151610fb66040860182610edb565b5060608301518482036060860152610fce8282610f30565b9150506080830151610fe36080860182610ebd565b5060a0830151610ff660a0860182610f69565b5060c083015161100960c0860182610f69565b508091505092915050565b60006110208383610f78565b905092915050565b6000602082019050919050565b600061104082610e91565b61104a8185610e9c565b93508360208202850161105c85610ead565b8060005b8581101561109857848403895281516110798582611014565b945061108483611028565b925060208a01995050600181019050611060565b50829750879550505050505092915050565b600060208201905081810360008301526110c48184611035565b905092915050565b6000602082840312156110e2576110e1610ace565b5b60006110f084828501610b97565b91505092915050565b600082825260208201905092915050565b7f526576696577206e6f7420666f756e6400000000000000000000000000000000600082015250565b60006111406010836110f9565b915061114b8261110a565b602082019050919050565b6000602082019050818103600083015261116f81611133565b9050919050565b7f4e487b7100000000000000000000000000000000000000000000000000000000600052603260045260246000fd5b7f416c726561647920766572696669656400000000000000000000000000000000600082015250565b60006111db6010836110f9565b91506111e6826111a5565b602082019050919050565b6000602082019050818103600083015261120a816111ce565b9050919050565b7f416c726561647920726576696577656400000000000000000000000000000000600082015250565b60006112476010836110f9565b915061125282611211565b602082019050919050565b600060208201905081810360008301526112768161123a565b9050919050565b7f496e76616c696420726174696e67000000000000000000000000000000000000600082015250565b60006112b3600e836110f9565b91506112be8261127d565b602082019050919050565b600060208201905081810360008301526112e2816112a6565b9050919050565b7f456d70747920636f6d6d656e7400000000000000000000000000000000000000600082015250565b600061131f600d836110f9565b915061132a826112e9565b602082019050919050565b6000602082019050818103600083015261134e81611312565b9050919050565b7f4e487b7100000000000000000000000000000000000000000000000000000000600052602260045260246000fd5b6000600282049050600182168061139c57607f821691505b6020821081036113af576113ae611355565b5b50919050565b60008190508160005260206000209050919050565b60006020601f8301049050919050565b600082821b905092915050565b6000600883026114177fffffffffffffffffffffffffffffffffffffffffffffffffffffffffffffffff826113da565b61142186836113da565b95508019841693508086168417925050509392505050565b6000819050919050565b600061145e61145961145484610ad8565b611439565b610ad8565b9050919050565b6000819050919050565b61147883611443565b61148c61148482611465565b8484546113e7565b825550505050565b600090565b6114a1611494565b6114ac81848461146f565b505050565b5b818110156114d0576114c5600082611499565b6001810190506114b2565b5050565b601f821115611515576114e6816113b5565b6114ef846113ca565b810160208510156114fe578190505b61151261150a856113ca565b8301826114b1565b50505b505050565b600082821c905092915050565b60006115386000198460080261151a565b1980831691505092915050565b60006115518383611527565b9150826002028217905092915050565b61156a82610eea565b67ffffffffffffffff81111561158357611582610c76565b5b61158d8254611384565b6115988282856114d4565b600060209050601f8311600181146115cb57600084156115b9578287015190505b6115c38582611545565b86555061162b565b601f1984166115d9866113b5565b60005b82811015611601578489015182556001820191506020850194506020810190506115dc565b8683101561161e578489015161161a601f891682611527565b8355505b6001600288020188555050505b505050505050565b61163c81610c22565b82525050565b60006020820190506116576000830184611633565b9291505056fea2646970667358221220177c957ee3ac0437d3d4a82dea88aa032ebb6c3a6d2ad8aef994f9c2046e836f64736f6c63430008140033",
  "linkReferences": {},
  "deployedLinkReferences": {}
}