{
  "_format": "hh-sol-artifact-1",
  "contractName": "Escrow",
  "sourceName": "contracts/Escrow.sol",
  "abi": [
    {
      "inputs": [],
      "stateMutability": "nonpayable",
      "type": "constructor"
    },
    {
      "inputs": [
        {
          "internalType": "address",
          "name": "owner",
          "type": "address"
        }
      ],
      "name": "OwnableInvalidOwner",
      "type": "error"
    },
    {
      "inputs": [
        {
          "internalType": "address",
          "name": "account",
          "type": "address"
        }
      ],
      "name": "OwnableUnauthorizedAccount",
      "type": "error"
    },
    {
      "inputs": [],
      "name": "ReentrancyGuardReentrantCall",
      "type": "error"
    },
    {
      "anonymous": false,
      "inputs": [
        {
          "indexed": true,
          "internalType": "uint256",
          "name": "escrowId",
          "type": "uint256"
        },
        {
          "indexed": false,
          "internalType": "address",
          "name": "buyer",
          "type": "address"
        },
        {
          "indexed": false,
          "internalType": "address",
          "name": "seller",
          "type": "address"
        },
        {
          "indexed": false,
          "internalType": "uint256",
          "name": "amount",
          "type": "uint256"
        }
      ],
      "name": "EscrowCreated",
      "type": "event"
    },
    {
      "anonymous": false,
      "inputs": [
        {
          "indexed": true,
          "internalType": "uint256",
          "name": "escrowId",
          "type": "uint256"
        },
        {
          "indexed": false,
          "internalType": "address",
          "name": "disputedBy",
          "type": "address"
        }
      ],
      "name": "EscrowDisputed",
      "type": "event"
    },
    {
      "anonymous": false,
      "inputs": [
        {
          "indexed": true,
          "internalType": "uint256",
          "name": "escrowId",
          "type": "uint256"
        },
        {
          "indexed": false,
          "internalType": "uint256",
          "name": "amount",
          "type": "uint256"
        }
      ],
      "name": "EscrowFunded",
      "type": "event"
    },
    {
      "anonymous": false,
      "inputs": [
        {
          "indexed": true,
          "internalType": "uint256",
          "name": "escrowId",
          "type": "uint256"
        },
        {
          "indexed": false,
          "internalType": "uint256",
          "name": "amount",
          "type": "uint256"
        }
      ],
      "name": "EscrowRefunded",
      "type": "event"
    },
    {
      "anonymous": false,
      "inputs": [
        {
          "indexed": true,
          "internalType": "uint256",
          "name": "escrowId",
          "type": "uint256"
        },
        {
          "indexed": false,
          "internalType": "uint256",
          "name": "amount",
          "type": "uint256"
        }
      ],
      "name": "EscrowReleased",
      "type": "event"
    },
    {
      "anonymous": false,
      "inputs": [
        {
          "indexed": true,
          "internalType": "address",
          "name": "previousOwner",
          "type": "address"
        },
        {
          "indexed": true,
          "internalType": "address",
          "name": "newOwner",
          "type": "address"
        }
      ],
      "name": "OwnershipTransferred",
      "type": "event"
    },
    {
      "inputs": [],
      "name": "AUTO_RELEASE_TIME",
      "outputs": [
        {
          "internalType": "uint256",
          "name": "",
          "type": "uint256"
        }
      ],
      "stateMutability": "view",
      "type": "function"
    },
    {
      "inputs": [],
      "name": "DISPUTE_TIMELOCK",
      "outputs": [
        {
          "internalType": "uint256",
          "name": "",
          "type": "uint256"
        }
      ],
      "stateMutability": "view",
      "type": "function"
    },
    {
      "inputs": [
        {
          "internalType": "address",
          "name": "seller",
          "type": "address"
        },
        {
          "internalType": "uint256",
          "name": "listingId",
          "type": "uint256"
        }
      ],
      "name": "createEscrow",
      "outputs": [
        {
          "internalType": "uint256",
          "name": "",
          "type": "uint256"
        }
      ],
      "stateMutability": "payable",
      "type": "function"
    },
    {
      "inputs": [
        {
          "internalType": "uint256",
          "name": "escrowId",
          "type": "uint256"
        }
      ],
      "name": "disputeEscrow",
      "outputs": [],
      "stateMutability": "nonpayable",
      "type": "function"
    },
    {
      "inputs": [
        {
          "internalType": "uint256",
          "name": "escrowId",
          "type": "uint256"
        }
      ],
      "name": "getEscrow",
      "outputs": [
        {
          "components": [
            {
              "internalType": "uint256",
              "name": "id",
              "type": "uint256"
            },
            {
              "internalType": "address",
              "name": "buyer",
              "type": "address"
            },
            {
              "internalType": "address",
              "name": "seller",
              "type": "address"
            },
            {
              "internalType": "uint256",
              "name": "amount",
              "type": "uint256"
            },
            {
              "internalType": "uint256",
              "name": "listingId",
              "type": "uint256"
            },
            {
              "internalType": "enum IEscrow.Status",
              "name": "status",
              "type": "uint8"
            },
            {
              "internalType": "uint256",
              "name": "createdAt",
              "type": "uint256"
            },
            {
              "internalType": "uint256",
              "name": "completedAt",
              "type": "uint256"
            }
          ],
          "internalType": "struct IEscrow.EscrowData",
          "name": "",
          "type": "tuple"
        }
      ],
      "stateMutability": "view",
      "type": "function"
    },
    {
      "inputs": [
        {
          "internalType": "address",
          "name": "buyer",
          "type": "address"
        }
      ],
      "name": "getEscrowsByBuyer",
      "outputs": [
        {
          "internalType": "uint256[]",
          "name": "",
          "type": "uint256[]"
        }
      ],
      "stateMutability": "view",
      "type": "function"
    },
    {
      "inputs": [
        {
          "internalType": "address",
          "name": "seller",
          "type": "address"
        }
      ],
      "name": "getEscrowsBySeller",
      "outputs": [
        {
          "internalType": "uint256[]",
          "name": "",
          "type": "uint256[]"
        }
      ],
      "stateMutability": "view",
      "type": "function"
    },
    {
      "inputs": [],
      "name": "owner",
      "outputs": [
        {
          "internalType": "address",
          "name": "",
          "type": "address"
        }
      ],
      "stateMutability": "view",
      "type": "function"
    },
    {
      "inputs": [
        {
          "internalType": "uint256",
          "name": "escrowId",
          "type": "uint256"
        }
      ],
      "name": "refundEscrow",
      "outputs": [],
      "stateMutability": "nonpayable",
      "type": "function"
    },
    {
      "inputs": [
        {
          "internalType": "uint256",
          "name": "escrowId",
          "type": "uint256"
        }
      ],
      "name": "releaseEscrow",
      "outputs": [],
      "stateMutability": "nonpayable",
      "type": "function"
    },
    {
      "inputs": [],
      "name": "renounceOwnership",
      "outputs": [],
      "stateMutability": "nonpayable",
      "type": "function"
    },
    {
      "inputs": [
        {
          "internalType": "uint256",
          "name": "escrowId",
          "type": "uint256"
        },
        {
          "internalType": "bool",
          "name": "releaseToSeller",
          "type": "bool"
        }
      ],
      "name": "resolveDispute",
      "outputs": [],
      "stateMutability": "nonpayable",
      "type": "function"
    },
    {
      "inputs": [
        {
          "internalType": "address",
          "name": "newOwner",
          "type": "address"
        }
      ],
      "name": "transferOwnership",
      "outputs": [],
      "stateMutability": "nonpayable",
      "type": "function"
    }
  ],
  "bytecode": "0x60806040523480156200001157600080fd5b50336001600081905550600073ffffffffffffffffffffffffffffffffffffffff168173ffffffffffffffffffffffffffffffffffffffff1603620000905760006040517f1e4fbdf7000000000000000000000000000000000000000000000000000000008152600401620000879190620001b3565b60405180910390fd5b620000a181620000a860201b60201c565b50620001d0565b6000600160009054906101000a900473ffffffffffffffffffffffffffffffffffffffff16905081600160006101000a81548173ffffffffffffffffffffffffffffffffffffffff021916908373ffffffffffffffffffffffffffffffffffffffff1602179055508173ffffffffffffffffffffffffffffffffffffffff168173ffffffffffffffffffffffffffffffffffffffff167f8be0079c531659141344cd1fd0a4f28419497f9722a3daafe3b4186f6b6457e060405160405180910390a35050565b600073ffffffffffffffffffffffffffffffffffffffff82169050919050565b60006200019b826200016e565b9050919050565b620001ad816200018e565b82525050565b6000602082019050620001ca6000830184620001a2565b92915050565b611fa880620001e06000396000f3fe6080604052600436106100c25760003560e01c80638da5cb5b1161007f578063caa68a5111610059578063caa68a5114610259578063e2f988c614610296578063ed653164146102c1578063f2fde38b146102ea576100c2565b80638da5cb5b146101da5780639cf48d7d14610205578063b563153c14610230576100c2565b806334b25ee2146100c7578063356f9dfd146100f05780634614874e146101195780636a2fc00b14610149578063715018a6146101865780637d19e5961461019d575b600080fd5b3480156100d357600080fd5b506100ee60048036038101906100e99190611697565b610313565b005b3480156100fc57600080fd5b50610117600480360381019061011291906116d7565b610590565b005b610133600480360381019061012e9190611762565b610829565b60405161014091906117b1565b60405180910390f35b34801561015557600080fd5b50610170600480360381019061016b91906117cc565b610c00565b60405161017d91906118b7565b60405180910390f35b34801561019257600080fd5b5061019b610c97565b005b3480156101a957600080fd5b506101c460048036038101906101bf91906116d7565b610cab565b6040516101d19190611a01565b60405180910390f35b3480156101e657600080fd5b506101ef610df2565b6040516101fc9190611a2c565b60405180910390f35b34801561021157600080fd5b5061021a610e1c565b60405161022791906117b1565b60405180910390f35b34801561023c57600080fd5b50610257600480360381019061025291906116d7565b610e23565b005b34801561026557600080fd5b50610280600480360381019061027b91906117cc565b61105c565b60405161028d91906118b7565b60405180910390f35b3480156102a257600080fd5b506102ab6110f3565b6040516102b891906117b1565b60405180910390f35b3480156102cd57600080fd5b506102e860048036038101906102e391906116d7565b6110fa565b005b3480156102f657600080fd5b50610311600480360381019061030c91906117cc565b611376565b005b61031b6113fc565b610323611483565b600060036000848152602001908152602001600020905060048081111561034d5761034c6118e8565b5b8160050160009054906101000a900460ff166004811115610371576103706118e8565b5b146103b1576040517f08c379a00000000000000000000000000000000000000000000000000000000081526004016103a890611aa4565b60405180910390fd5b6000826103e2578160010160009054906101000a900473ffffffffffffffffffffffffffffffffffffffff16610408565b8160020160009054906101000a900473ffffffffffffffffffffffffffffffffffffffff165b905082610416576003610419565b60025b8260050160006101000a81548160ff0219169083600481111561043f5761043e6118e8565b5b021790555042826007018190555060008173ffffffffffffffffffffffffffffffffffffffff16836003015460405161047790611af5565b60006040518083038185875af1925050503d80600081146104b4576040519150601f19603f3d011682016040523d82523d6000602084013e6104b9565b606091505b50509050806104fd576040517f08c379a00000000000000000000000000000000000000000000000000000000081526004016104f490611b56565b60405180910390fd5b831561054457847f10ce17ae7e78eb775b13182ea618b201c2c81afc8fee55c287291f8686f17eac846003015460405161053791906117b1565b60405180910390a2610581565b847f8e09fed7623ad9f8d5a701dd9f3233197147d0043c564dfb1a6c0023ab568c20846003015460405161057891906117b1565b60405180910390a25b50505061058c6114c9565b5050565b610598611483565b60006003600083815260200190815260200160002090508060020160009054906101000a900473ffffffffffffffffffffffffffffffffffffffff1673ffffffffffffffffffffffffffffffffffffffff163373ffffffffffffffffffffffffffffffffffffffff16148061061f575062127500816006015461061b9190611ba5565b4210155b61065e576040517f08c379a000000000000000000000000000000000000000000000000000000000815260040161065590611c4b565b60405180910390fd5b60016004811115610672576106716118e8565b5b8160050160009054906101000a900460ff166004811115610696576106956118e8565b5b146106d6576040517f08c379a00000000000000000000000000000000000000000000000000000000081526004016106cd90611cb7565b60405180910390fd5b60038160050160006101000a81548160ff021916908360048111156106fe576106fd6118e8565b5b021790555042816007018190555060008160010160009054906101000a900473ffffffffffffffffffffffffffffffffffffffff1673ffffffffffffffffffffffffffffffffffffffff16826003015460405161075a90611af5565b60006040518083038185875af1925050503d8060008114610797576040519150601f19603f3d011682016040523d82523d6000602084013e61079c565b606091505b50509050806107e0576040517f08c379a00000000000000000000000000000000000000000000000000000000081526004016107d790611b56565b60405180910390fd5b827f8e09fed7623ad9f8d5a701dd9f3233197147d0043c564dfb1a6c0023ab568c20836003015460405161081491906117b1565b60405180910390a250506108266114c9565b50565b600080341161086d576040517f08c379a000000000000000000000000000000000000000000000000000000000815260040161086490611d23565b60405180910390fd5b600073ffffffffffffffffffffffffffffffffffffffff168373ffffffffffffffffffffffffffffffffffffffff16141580156108d657503373ffffffffffffffffffffffffffffffffffffffff168373ffffffffffffffffffffffffffffffffffffffff1614155b610915576040517f08c379a000000000000000000000000000000000000000000000000000000000815260040161090c90611d8f565b60405180910390fd5b60006002600081548092919061092a90611daf565b91905055905060006040518061010001604052808381526020013373ffffffffffffffffffffffffffffffffffffffff1681526020018673ffffffffffffffffffffffffffffffffffffffff1681526020013481526020018581526020016001600481111561099c5761099b6118e8565b5b81526020014281526020016000815250905080600360008481526020019081526020016000206000820151816000015560208201518160010160006101000a81548173ffffffffffffffffffffffffffffffffffffffff021916908373ffffffffffffffffffffffffffffffffffffffff16021790555060408201518160020160006101000a81548173ffffffffffffffffffffffffffffffffffffffff021916908373ffffffffffffffffffffffffffffffffffffffff160217905550606082015181600301556080820151816004015560a08201518160050160006101000a81548160ff02191690836004811115610a9957610a986118e8565b5b021790555060c0820151816006015560e08201518160070155905050600460003373ffffffffffffffffffffffffffffffffffffffff1673ffffffffffffffffffffffffffffffffffffffff168152602001908152602001600020829080600181540180825580915050600190039060005260206000200160009091909190915055600560008673ffffffffffffffffffffffffffffffffffffffff1673ffffffffffffffffffffffffffffffffffffffff168152602001908152602001600020829080600181540180825580915050600190039060005260206000200160009091909190915055817f9405ad0a6208539879349284d71265479b1623846f70303da1f9890d6e8c10a7338734604051610bb593929190611df7565b60405180910390a2817f911052e1be46242b46bf3c2762227ff37c000e5fe38727638096f3a17fbfe17034604051610bed91906117b1565b60405180910390a2819250505092915050565b6060600560008373ffffffffffffffffffffffffffffffffffffffff1673ffffffffffffffffffffffffffffffffffffffff168152602001908152602001600020805480602002602001604051908101604052809291908181526020018280548015610c8b57602002820191906000526020600020905b815481526020019060010190808311610c77575b50505050509050919050565b610c9f6113fc565b610ca960006114d3565b565b610cb36115a1565b6003600083815260200190815260200160002060405180610100016040529081600082015481526020016001820160009054906101000a900473ffffffffffffffffffffffffffffffffffffffff1673ffffffffffffffffffffffffffffffffffffffff1673ffffffffffffffffffffffffffffffffffffffff1681526020016002820160009054906101000a900473ffffffffffffffffffffffffffffffffffffffff1673ffffffffffffffffffffffffffffffffffffffff1673ffffffffffffffffffffffffffffffffffffffff16815260200160038201548152602001600482015481526020016005820160009054906101000a900460ff166004811115610dc157610dc06118e8565b5b6004811115610dd357610dd26118e8565b5b8152602001600682015481526020016007820154815250509050919050565b6000600160009054906101000a900473ffffffffffffffffffffffffffffffffffffffff16905090565b6212750081565b60006003600083815260200190815260200160002090508060010160009054906101000a900473ffffffffffffffffffffffffffffffffffffffff1673ffffffffffffffffffffffffffffffffffffffff163373ffffffffffffffffffffffffffffffffffffffff161480610ee757508060020160009054906101000a900473ffffffffffffffffffffffffffffffffffffffff1673ffffffffffffffffffffffffffffffffffffffff163373ffffffffffffffffffffffffffffffffffffffff16145b610f26576040517f08c379a0000000000000000000000000000000000000000000000000000000008152600401610f1d90611e7a565b60405180910390fd5b60016004811115610f3a57610f396118e8565b5b8160050160009054906101000a900460ff166004811115610f5e57610f5d6118e8565b5b14610f9e576040517f08c379a0000000000000000000000000000000000000000000000000000000008152600401610f9590611cb7565b60405180910390fd5b62093a808160060154610fb19190611ba5565b421115610ff3576040517f08c379a0000000000000000000000000000000000000000000000000000000008152600401610fea90611ee6565b60405180910390fd5b60048160050160006101000a81548160ff0219169083600481111561101b5761101a6118e8565b5b0217905550817fc25e2b14e82d9713d1570e77d6549051cc07e59f7f354600ce0e0c0f2aa29b0e336040516110509190611a2c565b60405180910390a25050565b6060600460008373ffffffffffffffffffffffffffffffffffffffff1673ffffffffffffffffffffffffffffffffffffffff1681526020019081526020016000208054806020026020016040519081016040528092919081815260200182805480156110e757602002820191906000526020600020905b8154815260200190600101908083116110d3575b50505050509050919050565b62093a8081565b611102611483565b60006003600083815260200190815260200160002090503373ffffffffffffffffffffffffffffffffffffffff168160010160009054906101000a900473ffffffffffffffffffffffffffffffffffffffff1673ffffffffffffffffffffffffffffffffffffffff16146111ab576040517f08c379a00000000000000000000000000000000000000000000000000000000081526004016111a290611f52565b60405180910390fd5b600160048111156111bf576111be6118e8565b5b8160050160009054906101000a900460ff1660048111156111e3576111e26118e8565b5b14611223576040517f08c379a000000000000000000000000000000000000000000000000000000000815260040161121a90611cb7565b60405180910390fd5b60028160050160006101000a81548160ff0219169083600481111561124b5761124a6118e8565b5b021790555042816007018190555060008160020160009054906101000a900473ffffffffffffffffffffffffffffffffffffffff1673ffffffffffffffffffffffffffffffffffffffff1682600301546040516112a790611af5565b60006040518083038185875af1925050503d80600081146112e4576040519150601f19603f3d011682016040523d82523d6000602084013e6112e9565b606091505b505090508061132d576040517f08c379a000000000000000000000000000000000000000000000000000000000815260040161132490611b56565b60405180910390fd5b827f10ce17ae7e78eb775b13182ea618b201c2c81afc8fee55c287291f8686f17eac836003015460405161136191906117b1565b60405180910390a250506113736114c9565b50565b61137e6113fc565b600073ffffffffffffffffffffffffffffffffffffffff168173ffffffffffffffffffffffffffffffffffffffff16036113f05760006040517f1e4fbdf70000000000000000000000000000000000000000000000000000000081526004016113e79190611a2c565b60405180910390fd5b6113f9816114d3565b50565b611404611599565b73ffffffffffffffffffffffffffffffffffffffff16611422610df2565b73ffffffffffffffffffffffffffffffffffffffff161461148157611445611599565b6040517f118cdaa70000000000000000000000000000000000000000000000000000000081526004016114789190611a2c565b60405180910390fd5b565b6002600054036114bf576040517f3ee5aeb500000000000000000000000000000000000000000000000000000000815260040160405180910390fd5b6002600081905550565b6001600081905550565b6000600160009054906101000a900473ffffffffffffffffffffffffffffffffffffffff16905081600160006101000a81548173ffffffffffffffffffffffffffffffffffffffff021916908373ffffffffffffffffffffffffffffffffffffffff1602179055508173ffffffffffffffffffffffffffffffffffffffff168173ffffffffffffffffffffffffffffffffffffffff167f8be0079c531659141344cd1fd0a4f28419497f9722a3daafe3b4186f6b6457e060405160405180910390a35050565b600033905090565b60405180610100016040528060008152602001600073ffffffffffffffffffffffffffffffffffffffff168152602001600073ffffffffffffffffffffffffffffffffffffffff1681526020016000815260200160008152602001600060048111156116105761160f6118e8565b5b815260200160008152602001600081525090565b600080fd5b6000819050919050565b61163c81611629565b811461164757600080fd5b50565b60008135905061165981611633565b92915050565b60008115159050919050565b6116748161165f565b811461167f57600080fd5b50565b6000813590506116918161166b565b92915050565b600080604083850312156116ae576116ad611624565b5b60006116bc8582860161164a565b92505060206116cd85828601611682565b9150509250929050565b6000602082840312156116ed576116ec611624565b5b60006116fb8482850161164a565b91505092915050565b600073ffffffffffffffffffffffffffffffffffffffff82169050919050565b600061172f82611704565b9050919050565b61173f81611724565b811461174a57600080fd5b50565b60008135905061175c81611736565b92915050565b6000806040838503121561177957611778611624565b5b60006117878582860161174d565b92505060206117988582860161164a565b9150509250929050565b6117ab81611629565b82525050565b60006020820190506117c660008301846117a2565b92915050565b6000602082840312156117e2576117e1611624565b5b60006117f08482850161174d565b91505092915050565b600081519050919050565b600082825260208201905092915050565b6000819050602082019050919050565b61182e81611629565b82525050565b60006118408383611825565b60208301905092915050565b6000602082019050919050565b6000611864826117f9565b61186e8185611804565b935061187983611815565b8060005b838110156118aa5781516118918882611834565b975061189c8361184c565b92505060018101905061187d565b5085935050505092915050565b600060208201905081810360008301526118d18184611859565b905092915050565b6118e281611724565b82525050565b7f4e487b7100000000000000000000000000000000000000000000000000000000600052602160045260246000fd5b60058110611928576119276118e8565b5b50565b600081905061193982611917565b919050565b60006119498261192b565b9050919050565b6119598161193e565b82525050565b610100820160008201516119766000850182611825565b50602082015161198960208501826118d9565b50604082015161199c60408501826118d9565b5060608201516119af6060850182611825565b5060808201516119c26080850182611825565b5060a08201516119d560a0850182611950565b5060c08201516119e860c0850182611825565b5060e08201516119fb60e0850182611825565b50505050565b600061010082019050611a17600083018461195f565b92915050565b611a2681611724565b82525050565b6000602082019050611a416000830184611a1d565b92915050565b600082825260208201905092915050565b7f4e6f742064697370757465640000000000000000000000000000000000000000600082015250565b6000611a8e600c83611a47565b9150611a9982611a58565b602082019050919050565b60006020820190508181036000830152611abd81611a81565b9050919050565b600081905092915050565b50565b6000611adf600083611ac4565b9150611aea82611acf565b600082019050919050565b6000611b0082611ad2565b9150819050919050565b7f5472616e73666572206661696c65640000000000000000000000000000000000600082015250565b6000611b40600f83611a47565b9150611b4b82611b0a565b602082019050919050565b60006020820190508181036000830152611b6f81611b33565b9050919050565b7f4e487b7100000000000000000000000000000000000000000000000000000000600052601160045260246000fd5b6000611bb082611629565b9150611bbb83611629565b9250828201905080821115611bd357611bd2611b76565b5b92915050565b7f4e6f7420617574686f72697a6564206f722074696d656c6f636b20616374697660008201527f6500000000000000000000000000000000000000000000000000000000000000602082015250565b6000611c35602183611a47565b9150611c4082611bd9565b604082019050919050565b60006020820190508181036000830152611c6481611c28565b9050919050565b7f496e76616c696420737461747573000000000000000000000000000000000000600082015250565b6000611ca1600e83611a47565b9150611cac82611c6b565b602082019050919050565b60006020820190508181036000830152611cd081611c94565b9050919050565b7f416d6f756e74206d7573742062652067726561746572207468616e2030000000600082015250565b6000611d0d601d83611a47565b9150611d1882611cd7565b602082019050919050565b60006020820190508181036000830152611d3c81611d00565b9050919050565b7f496e76616c69642073656c6c6572000000000000000000000000000000000000600082015250565b6000611d79600e83611a47565b9150611d8482611d43565b602082019050919050565b60006020820190508181036000830152611da881611d6c565b9050919050565b6000611dba82611629565b91507fffffffffffffffffffffffffffffffffffffffffffffffffffffffffffffffff8203611dec57611deb611b76565b5b600182019050919050565b6000606082019050611e0c6000830186611a1d565b611e196020830185611a1d565b611e2660408301846117a2565b949350505050565b7f4e6f7420617574686f72697a6564000000000000000000000000000000000000600082015250565b6000611e64600e83611a47565b9150611e6f82611e2e565b602082019050919050565b60006020820190508181036000830152611e9381611e57565b9050919050565b7f4469737075746520706572696f6420656e646564000000000000000000000000600082015250565b6000611ed0601483611a47565b9150611edb82611e9a565b602082019050919050565b60006020820190508181036000830152611eff81611ec3565b9050919050565b7f4f6e6c792062757965722063616e2072656c6561736500000000000000000000600082015250565b6000611f3c601683611a47565b9150611f4782611f06565b602082019050919050565b60006020820190508181036000830152611f6b81611f2f565b905091905056fea26469706673582212201fe856babd6d08642e260729717d546ea8f080adcba690410294d07c100e120664736f6c63430008140033",
  "linkReferences": {},
  "deployedLinkReferences": {}
}