{
  "_format": "hh-sol-artifact-1",
  "contractName": "Marketplace",
  "sourceName": "contracts/MarketPlace.sol",
  "abi": [
    {
      "inputs": [
        {
          "internalType": "address",
          "name": "_loyaltyToken",
          "type": "address"
        },
        {
          "internalType": "address",
          "name": "_reviewSystem",
          "type": "address"
        }
      ],
      "stateMutability": "nonpayable",
      "type": "constructor"
    },
    {
      "inputs": [
        {
          "internalType": "address",
          "name": "owner",
          "type": "address"
        }
      ],
      "name": "OwnableInvalidOwner",
      "type": "error"
    },
    {
      "inputs": [
        {
          "internalType": "address",
          "name": "account",
          "type": "address"
        }
      ],
      "name": "OwnableUnauthorizedAccount",
      "type": "error"
    },
    {
      "inputs": [],
      "name": "ReentrancyGuardReentrantCall",
      "type": "error"
    },
    {
      "anonymous": false,
      "inputs": [
        {
          "indexed": true,
          "internalType": "uint256",
          "name": "listingId",
          "type": "uint256"
        }
      ],
      "name": "ListingCancelled",
      "type": "event"
    },
    {
      "anonymous": false,
      "inputs": [
        {
          "indexed": true,
          "internalType": "uint256",
          "name": "listingId",
          "type": "uint256"
        },
        {
          "indexed": true,
          "internalType": "address",
          "name": "seller",
          "type": "address"
        },
        {
          "indexed": false,
          "internalType": "uint256",
          "name": "price",
          "type": "uint256"
        }
      ],
      "name": "ListingCreated",
      "type": "event"
    },
    {
      "anonymous": false,
      "inputs": [
        {
          "indexed": true,
          "internalType": "uint256",
          "name": "listingId",
          "type": "uint256"
        },
        {
          "indexed": true,
          "internalType": "address",
          "name": "buyer",
          "type": "address"
        },
        {
          "indexed": false,
          "internalType": "uint256",
          "name": "price",
          "type": "uint256"
        }
      ],
      "name": "ListingSold",
      "type": "event"
    },
    {
      "anonymous": false,
      "inputs": [
        {
          "indexed": true,
          "internalType": "address",
          "name": "previousOwner",
          "type": "address"
        },
        {
          "indexed": true,
          "internalType": "address",
          "name": "newOwner",
          "type": "address"
        }
      ],
      "name": "OwnershipTransferred",
      "type": "event"
    },
    {
      "inputs": [],
      "name": "LOYALTY_REWARD_RATE",
      "outputs": [
        {
          "internalType": "uint256",
          "name": "",
          "type": "uint256"
        }
      ],
      "stateMutability": "view",
      "type": "function"
    },
    {
      "inputs": [
        {
          "internalType": "uint256",
          "name": "listingId",
          "type": "uint256"
        }
      ],
      "name": "buyListing",
      "outputs": [],
      "stateMutability": "payable",
      "type": "function"
    },
    {
      "inputs": [
        {
          "internalType": "uint256",
          "name": "listingId",
          "type": "uint256"
        }
      ],
      "name": "cancelListing",
      "outputs": [],
      "stateMutability": "nonpayable",
      "type": "function"
    },
    {
      "inputs": [
        {
          "internalType": "uint256",
          "name": "price",
          "type": "uint256"
        },
        {
          "internalType": "string",
          "name": "ipfsHash",
          "type": "string"
        }
      ],
      "name": "createListing",
      "outputs": [
        {
          "internalType": "uint256",
          "name": "",
          "type": "uint256"
        }
      ],
      "stateMutability": "nonpayable",
      "type": "function"
    },
    {
      "inputs": [
        {
          "internalType": "address",
          "name": "seller",
          "type": "address"
        }
      ],
      "name": "getSellerListings",
      "outputs": [
        {
          "internalType": "uint256[]",
          "name": "",
          "type": "uint256[]"
        }
      ],
      "stateMutability": "view",
      "type": "function"
    },
    {
      "inputs": [
        {
          "internalType": "uint256",
          "name": "",
          "type": "uint256"
        }
      ],
      "name": "listings",
      "outputs": [
        {
          "internalType": "uint256",
          "name": "id",
          "type": "uint256"
        },
        {
          "internalType": "address",
          "name": "seller",
          "type": "address"
        },
        {
          "internalType": "uint256",
          "name": "price",
          "type": "uint256"
        },
        {
          "internalType": "string",
          "name": "ipfsMetadataHash",
          "type": "string"
        },
        {
          "internalType": "bool",
          "name": "isActive",
          "type": "bool"
        },
        {
          "internalType": "uint256",
          "name": "createdAt",
          "type": "uint256"
        }
      ],
      "stateMutability": "view",
      "type": "function"
    },
    {
      "inputs": [],
      "name": "loyaltyToken",
      "outputs": [
        {
          "internalType": "contract LoyaltyToken",
          "name": "",
          "type": "address"
        }
      ],
      "stateMutability": "view",
      "type": "function"
    },
    {
      "inputs": [],
      "name": "owner",
      "outputs": [
        {
          "internalType": "address",
          "name": "",
          "type": "address"
        }
      ],
      "stateMutability": "view",
      "type": "function"
    },
    {
      "inputs": [],
      "name": "renounceOwnership",
      "outputs": [],
      "stateMutability": "nonpayable",
      "type": "function"
    },
    {
      "inputs": [],
      "name": "reviewSystem",
      "outputs": [
        {
          "internalType": "contract ReviewSystem",
          "name": "",
          "type": "address"
        }
      ],
      "stateMutability": "view",
      "type": "function"
    },
    {
      "inputs": [
        {
          "internalType": "address",
          "name": "",
          "type": "address"
        },
        {
          "internalType": "uint256",
          "name": "",
          "type": "uint256"
        }
      ],
      "name": "sellerListings",
      "outputs": [
        {
          "internalType": "uint256",
          "name": "",
          "type": "uint256"
        }
      ],
      "stateMutability": "view",
      "type": "function"
    },
    {
      "inputs": [
        {
          "internalType": "address",
          "name": "newOwner",
          "type": "address"
        }
      ],
      "name": "transferOwnership",
      "outputs": [],
      "stateMutability": "nonpayable",
      "type": "function"
    }
  ],
  "bytecode": "0x60806040523480156200001157600080fd5b5060405162001f8238038062001f8283398181016040528101906200003791906200027e565b33600073ffffffffffffffffffffffffffffffffffffffff168173ffffffffffffffffffffffffffffffffffffffff1603620000ad5760006040517f1e4fbdf7000000000000000000000000000000000000000000000000000000008152600401620000a49190620002d6565b60405180910390fd5b620000be816200015060201b60201c565b506001808190555081600260006101000a81548173ffffffffffffffffffffffffffffffffffffffff021916908373ffffffffffffffffffffffffffffffffffffffff16021790555080600360006101000a81548173ffffffffffffffffffffffffffffffffffffffff021916908373ffffffffffffffffffffffffffffffffffffffff1602179055505050620002f3565b60008060009054906101000a900473ffffffffffffffffffffffffffffffffffffffff169050816000806101000a81548173ffffffffffffffffffffffffffffffffffffffff021916908373ffffffffffffffffffffffffffffffffffffffff1602179055508173ffffffffffffffffffffffffffffffffffffffff168173ffffffffffffffffffffffffffffffffffffffff167f8be0079c531659141344cd1fd0a4f28419497f9722a3daafe3b4186f6b6457e060405160405180910390a35050565b600080fd5b600073ffffffffffffffffffffffffffffffffffffffff82169050919050565b6000620002468262000219565b9050919050565b620002588162000239565b81146200026457600080fd5b50565b60008151905062000278816200024d565b92915050565b6000806040838503121562000298576200029762000214565b5b6000620002a88582860162000267565b9250506020620002bb8582860162000267565b9150509250929050565b620002d08162000239565b82525050565b6000602082019050620002ed6000830184620002c5565b92915050565b611c7f80620003036000396000f3fe6080604052600436106100a75760003560e01c8063715018a611610064578063715018a6146101d3578063770aa84d146101ea5780638da5cb5b1461021557806392d76cb614610240578063de74e57b1461026b578063f2fde38b146102ad576100a7565b8063054564f0146100ac5780630d17f0db146100e95780632721072d14610114578063305a67a8146101515780634884f4591461017a5780635f42da0914610196575b600080fd5b3480156100b857600080fd5b506100d360048036038101906100ce9190610f65565b6102d6565b6040516100e09190610fb4565b60405180910390f35b3480156100f557600080fd5b506100fe610307565b60405161010b9190610fb4565b60405180910390f35b34801561012057600080fd5b5061013b60048036038101906101369190611115565b61030c565b6040516101489190610fb4565b60405180910390f35b34801561015d57600080fd5b5061017860048036038101906101739190611171565b610565565b005b610194600480360381019061018f9190611171565b6106f3565b005b3480156101a257600080fd5b506101bd60048036038101906101b8919061119e565b610a84565b6040516101ca9190611289565b60405180910390f35b3480156101df57600080fd5b506101e8610b1b565b005b3480156101f657600080fd5b506101ff610b2f565b60405161020c919061130a565b60405180910390f35b34801561022157600080fd5b5061022a610b55565b6040516102379190611334565b60405180910390f35b34801561024c57600080fd5b50610255610b7e565b6040516102629190611370565b60405180910390f35b34801561027757600080fd5b50610292600480360381019061028d9190611171565b610ba4565b6040516102a496959493929190611425565b60405180910390f35b3480156102b957600080fd5b506102d460048036038101906102cf919061119e565b610c95565b005b600660205281600052604060002081815481106102f257600080fd5b90600052602060002001600091509150505481565b606481565b6000808311610350576040517f08c379a0000000000000000000000000000000000000000000000000000000008152600401610347906114d9565b60405180910390fd5b6000825111610394576040517f08c379a000000000000000000000000000000000000000000000000000000000815260040161038b90611545565b60405180910390fd5b6000600460008154809291906103a990611594565b9190505590506040518060c001604052808281526020013373ffffffffffffffffffffffffffffffffffffffff16815260200185815260200184815260200160011515815260200142815250600560008381526020019081526020016000206000820151816000015560208201518160010160006101000a81548173ffffffffffffffffffffffffffffffffffffffff021916908373ffffffffffffffffffffffffffffffffffffffff16021790555060408201518160020155606082015181600301908161047891906117de565b5060808201518160040160006101000a81548160ff02191690831515021790555060a08201518160050155905050600660003373ffffffffffffffffffffffffffffffffffffffff1673ffffffffffffffffffffffffffffffffffffffff1681526020019081526020016000208190806001815401808255809150506001900390600052602060002001600090919091909150553373ffffffffffffffffffffffffffffffffffffffff16817f9adf89188ff96bbe0e772b6a9345d935a240c2bd656be8db63db0d091e92cb9d866040516105539190610fb4565b60405180910390a38091505092915050565b6000600560008381526020019081526020016000209050818160000154146105c2576040517f08c379a00000000000000000000000000000000000000000000000000000000081526004016105b9906118fc565b60405180910390fd5b8060040160009054906101000a900460ff16610613576040517f08c379a000000000000000000000000000000000000000000000000000000000815260040161060a90611968565b60405180910390fd5b8060010160009054906101000a900473ffffffffffffffffffffffffffffffffffffffff1673ffffffffffffffffffffffffffffffffffffffff163373ffffffffffffffffffffffffffffffffffffffff16146106a5576040517f08c379a000000000000000000000000000000000000000000000000000000000815260040161069c906119d4565b60405180910390fd5b60008160040160006101000a81548160ff021916908315150217905550817f411aee90354c51b1b04cd563fcab2617142a9d50da19232d888547c8a1b7fd8a60405160405180910390a25050565b6106fb610d1b565b600060056000838152602001908152602001600020905081816000015414610758576040517f08c379a000000000000000000000000000000000000000000000000000000000815260040161074f906118fc565b60405180910390fd5b8060040160009054906101000a900460ff166107a9576040517f08c379a00000000000000000000000000000000000000000000000000000000081526004016107a090611968565b60405180910390fd5b806002015434146107ef576040517f08c379a00000000000000000000000000000000000000000000000000000000081526004016107e690611a40565b60405180910390fd5b8060010160009054906101000a900473ffffffffffffffffffffffffffffffffffffffff1673ffffffffffffffffffffffffffffffffffffffff163373ffffffffffffffffffffffffffffffffffffffff1603610881576040517f08c379a000000000000000000000000000000000000000000000000000000000815260040161087890611aac565b60405180910390fd5b60008160040160006101000a81548160ff0219169083151502179055506000612710606483600201546108b49190611acc565b6108be9190611b3d565b9050600260009054906101000a900473ffffffffffffffffffffffffffffffffffffffff1673ffffffffffffffffffffffffffffffffffffffff166340c10f1933836040518363ffffffff1660e01b815260040161091d929190611b6e565b600060405180830381600087803b15801561093757600080fd5b505af115801561094b573d6000803e3d6000fd5b5050505060008260010160009054906101000a900473ffffffffffffffffffffffffffffffffffffffff1673ffffffffffffffffffffffffffffffffffffffff16836002015460405161099d90611bc8565b60006040518083038185875af1925050503d80600081146109da576040519150601f19603f3d011682016040523d82523d6000602084013e6109df565b606091505b5050905080610a23576040517f08c379a0000000000000000000000000000000000000000000000000000000008152600401610a1a90611c29565b60405180910390fd5b3373ffffffffffffffffffffffffffffffffffffffff16847f8e378317cc1b9c64766fd136e5849da5f702d26a8f8b750115b7422909b2309f8560020154604051610a6e9190610fb4565b60405180910390a3505050610a81610d61565b50565b6060600660008373ffffffffffffffffffffffffffffffffffffffff1673ffffffffffffffffffffffffffffffffffffffff168152602001908152602001600020805480602002602001604051908101604052809291908181526020018280548015610b0f57602002820191906000526020600020905b815481526020019060010190808311610afb575b50505050509050919050565b610b23610d6a565b610b2d6000610df1565b565b600260009054906101000a900473ffffffffffffffffffffffffffffffffffffffff1681565b60008060009054906101000a900473ffffffffffffffffffffffffffffffffffffffff16905090565b600360009054906101000a900473ffffffffffffffffffffffffffffffffffffffff1681565b60056020528060005260406000206000915090508060000154908060010160009054906101000a900473ffffffffffffffffffffffffffffffffffffffff1690806002015490806003018054610bf99061160b565b80601f0160208091040260200160405190810160405280929190818152602001828054610c259061160b565b8015610c725780601f10610c4757610100808354040283529160200191610c72565b820191906000526020600020905b815481529060010190602001808311610c5557829003601f168201915b5050505050908060040160009054906101000a900460ff16908060050154905086565b610c9d610d6a565b600073ffffffffffffffffffffffffffffffffffffffff168173ffffffffffffffffffffffffffffffffffffffff1603610d0f5760006040517f1e4fbdf7000000000000000000000000000000000000000000000000000000008152600401610d069190611334565b60405180910390fd5b610d1881610df1565b50565b600260015403610d57576040517f3ee5aeb500000000000000000000000000000000000000000000000000000000815260040160405180910390fd5b6002600181905550565b60018081905550565b610d72610eb5565b73ffffffffffffffffffffffffffffffffffffffff16610d90610b55565b73ffffffffffffffffffffffffffffffffffffffff1614610def57610db3610eb5565b6040517f118cdaa7000000000000000000000000000000000000000000000000000000008152600401610de69190611334565b60405180910390fd5b565b60008060009054906101000a900473ffffffffffffffffffffffffffffffffffffffff169050816000806101000a81548173ffffffffffffffffffffffffffffffffffffffff021916908373ffffffffffffffffffffffffffffffffffffffff1602179055508173ffffffffffffffffffffffffffffffffffffffff168173ffffffffffffffffffffffffffffffffffffffff167f8be0079c531659141344cd1fd0a4f28419497f9722a3daafe3b4186f6b6457e060405160405180910390a35050565b600033905090565b6000604051905090565b600080fd5b600080fd5b600073ffffffffffffffffffffffffffffffffffffffff82169050919050565b6000610efc82610ed1565b9050919050565b610f0c81610ef1565b8114610f1757600080fd5b50565b600081359050610f2981610f03565b92915050565b6000819050919050565b610f4281610f2f565b8114610f4d57600080fd5b50565b600081359050610f5f81610f39565b92915050565b60008060408385031215610f7c57610f7b610ec7565b5b6000610f8a85828601610f1a565b9250506020610f9b85828601610f50565b9150509250929050565b610fae81610f2f565b82525050565b6000602082019050610fc96000830184610fa5565b92915050565b600080fd5b600080fd5b6000601f19601f8301169050919050565b7f4e487b7100000000000000000000000000000000000000000000000000000000600052604160045260246000fd5b61102282610fd9565b810181811067ffffffffffffffff8211171561104157611040610fea565b5b80604052505050565b6000611054610ebd565b90506110608282611019565b919050565b600067ffffffffffffffff8211156110805761107f610fea565b5b61108982610fd9565b9050602081019050919050565b82818337600083830152505050565b60006110b86110b384611065565b61104a565b9050828152602081018484840111156110d4576110d3610fd4565b5b6110df848285611096565b509392505050565b600082601f8301126110fc576110fb610fcf565b5b813561110c8482602086016110a5565b91505092915050565b6000806040838503121561112c5761112b610ec7565b5b600061113a85828601610f50565b925050602083013567ffffffffffffffff81111561115b5761115a610ecc565b5b611167858286016110e7565b9150509250929050565b60006020828403121561118757611186610ec7565b5b600061119584828501610f50565b91505092915050565b6000602082840312156111b4576111b3610ec7565b5b60006111c284828501610f1a565b91505092915050565b600081519050919050565b600082825260208201905092915050565b6000819050602082019050919050565b61120081610f2f565b82525050565b600061121283836111f7565b60208301905092915050565b6000602082019050919050565b6000611236826111cb565b61124081856111d6565b935061124b836111e7565b8060005b8381101561127c5781516112638882611206565b975061126e8361121e565b92505060018101905061124f565b5085935050505092915050565b600060208201905081810360008301526112a3818461122b565b905092915050565b6000819050919050565b60006112d06112cb6112c684610ed1565b6112ab565b610ed1565b9050919050565b60006112e2826112b5565b9050919050565b60006112f4826112d7565b9050919050565b611304816112e9565b82525050565b600060208201905061131f60008301846112fb565b92915050565b61132e81610ef1565b82525050565b60006020820190506113496000830184611325565b92915050565b600061135a826112d7565b9050919050565b61136a8161134f565b82525050565b60006020820190506113856000830184611361565b92915050565b600081519050919050565b600082825260208201905092915050565b60005b838110156113c55780820151818401526020810190506113aa565b60008484015250505050565b60006113dc8261138b565b6113e68185611396565b93506113f68185602086016113a7565b6113ff81610fd9565b840191505092915050565b60008115159050919050565b61141f8161140a565b82525050565b600060c08201905061143a6000830189610fa5565b6114476020830188611325565b6114546040830187610fa5565b818103606083015261146681866113d1565b90506114756080830185611416565b61148260a0830184610fa5565b979650505050505050565b7f5072696365206d7573742062652067726561746572207468616e203000000000600082015250565b60006114c3601c83611396565b91506114ce8261148d565b602082019050919050565b600060208201905081810360008301526114f2816114b6565b9050919050565b7f4950465320686173682072657175697265640000000000000000000000000000600082015250565b600061152f601283611396565b915061153a826114f9565b602082019050919050565b6000602082019050818103600083015261155e81611522565b9050919050565b7f4e487b7100000000000000000000000000000000000000000000000000000000600052601160045260246000fd5b600061159f82610f2f565b91507fffffffffffffffffffffffffffffffffffffffffffffffffffffffffffffffff82036115d1576115d0611565565b5b600182019050919050565b7f4e487b7100000000000000000000000000000000000000000000000000000000600052602260045260246000fd5b6000600282049050600182168061162357607f821691505b602082108103611636576116356115dc565b5b50919050565b60008190508160005260206000209050919050565b60006020601f8301049050919050565b600082821b905092915050565b60006008830261169e7fffffffffffffffffffffffffffffffffffffffffffffffffffffffffffffffff82611661565b6116a88683611661565b95508019841693508086168417925050509392505050565b60006116db6116d66116d184610f2f565b6112ab565b610f2f565b9050919050565b6000819050919050565b6116f5836116c0565b611709611701826116e2565b84845461166e565b825550505050565b600090565b61171e611711565b6117298184846116ec565b505050565b5b8181101561174d57611742600082611716565b60018101905061172f565b5050565b601f821115611792576117638161163c565b61176c84611651565b8101602085101561177b578190505b61178f61178785611651565b83018261172e565b50505b505050565b600082821c905092915050565b60006117b560001984600802611797565b1980831691505092915050565b60006117ce83836117a4565b9150826002028217905092915050565b6117e78261138b565b67ffffffffffffffff811115611800576117ff610fea565b5b61180a825461160b565b611815828285611751565b600060209050601f8311600181146118485760008415611836578287015190505b61184085826117c2565b8655506118a8565b601f1984166118568661163c565b60005b8281101561187e57848901518255600182019150602085019450602081019050611859565b8683101561189b5784890151611897601f8916826117a4565b8355505b6001600288020188555050505b505050505050565b7f496e76616c6964206c697374696e672049440000000000000000000000000000600082015250565b60006118e6601283611396565b91506118f1826118b0565b602082019050919050565b60006020820190508181036000830152611915816118d9565b9050919050565b7f4c697374696e67206e6f74206163746976650000000000000000000000000000600082015250565b6000611952601283611396565b915061195d8261191c565b602082019050919050565b6000602082019050818103600083015261198181611945565b9050919050565b7f4e6f74207468652073656c6c6572000000000000000000000000000000000000600082015250565b60006119be600e83611396565b91506119c982611988565b602082019050919050565b600060208201905081810360008301526119ed816119b1565b9050919050565b7f496e636f72726563742070726963650000000000000000000000000000000000600082015250565b6000611a2a600f83611396565b9150611a35826119f4565b602082019050919050565b60006020820190508181036000830152611a5981611a1d565b9050919050565b7f43616e6e6f7420627579206f776e206c697374696e6700000000000000000000600082015250565b6000611a96601683611396565b9150611aa182611a60565b602082019050919050565b60006020820190508181036000830152611ac581611a89565b9050919050565b6000611ad782610f2f565b9150611ae283610f2f565b9250828202611af081610f2f565b91508282048414831517611b0757611b06611565565b5b5092915050565b7f4e487b7100000000000000000000000000000000000000000000000000000000600052601260045260246000fd5b6000611b4882610f2f565b9150611b5383610f2f565b925082611b6357611b62611b0e565b5b828204905092915050565b6000604082019050611b836000830185611325565b611b906020830184610fa5565b9392505050565b600081905092915050565b50565b6000611bb2600083611b97565b9150611bbd82611ba2565b600082019050919050565b6000611bd382611ba5565b9150819050919050565b7f4661696c656420746f2073656e64207061796d656e7400000000000000000000600082015250565b6000611c13601683611396565b9150611c1e82611bdd565b602082019050919050565b60006020820190508181036000830152611c4281611c06565b905091905056fea2646970667358221220a442dbb1ff26c0cf53387f695418158a3f3eb47f18c120a1936003b7312822b564736f6c63430008140033",
  "linkReferences": {},
  "deployedLinkReferences": {}
}